{
  "contractName": "Project",
  "abi": [
    {
      "inputs": [
        {
          "internalType": "address payable",
          "name": "projectStarter",
          "type": "address"
        },
        {
          "internalType": "string",
          "name": "projectTitle",
          "type": "string"
        },
        {
          "internalType": "string",
          "name": "projectDesc",
          "type": "string"
        },
        {
          "internalType": "uint256",
          "name": "fundRaisingDeadline",
          "type": "uint256"
        },
        {
          "internalType": "string",
          "name": "projLink",
          "type": "string"
        },
        {
          "internalType": "uint256",
          "name": "goalAmount",
          "type": "uint256"
        }
      ],
      "payable": false,
      "stateMutability": "nonpayable",
      "type": "constructor"
    },
    {
      "anonymous": false,
      "inputs": [
        {
          "indexed": false,
          "internalType": "address",
          "name": "recipient",
          "type": "address"
        }
      ],
      "name": "CreatorPaid",
      "type": "event"
    },
    {
      "anonymous": false,
      "inputs": [
        {
          "indexed": false,
          "internalType": "address",
          "name": "contributor",
          "type": "address"
        },
        {
          "indexed": false,
          "internalType": "uint256",
          "name": "amount",
          "type": "uint256"
        },
        {
          "indexed": false,
          "internalType": "uint256",
          "name": "currentTotal",
          "type": "uint256"
        }
      ],
      "name": "FundReceived",
      "type": "event"
    },
    {
      "constant": true,
      "inputs": [],
      "name": "amountGoal",
      "outputs": [
        {
          "internalType": "uint256",
          "name": "",
          "type": "uint256"
        }
      ],
      "payable": false,
      "stateMutability": "view",
      "type": "function"
    },
    {
      "constant": true,
      "inputs": [],
      "name": "completeAt",
      "outputs": [
        {
          "internalType": "uint256",
          "name": "",
          "type": "uint256"
        }
      ],
      "payable": false,
      "stateMutability": "view",
      "type": "function"
    },
    {
      "constant": true,
      "inputs": [
        {
          "internalType": "address",
          "name": "",
          "type": "address"
        }
      ],
      "name": "contributions",
      "outputs": [
        {
          "internalType": "uint256",
          "name": "",
          "type": "uint256"
        }
      ],
      "payable": false,
      "stateMutability": "view",
      "type": "function"
    },
    {
      "constant": true,
      "inputs": [],
      "name": "creator",
      "outputs": [
        {
          "internalType": "address payable",
          "name": "",
          "type": "address"
        }
      ],
      "payable": false,
      "stateMutability": "view",
      "type": "function"
    },
    {
      "constant": true,
      "inputs": [],
      "name": "currentBalance",
      "outputs": [
        {
          "internalType": "uint256",
          "name": "",
          "type": "uint256"
        }
      ],
      "payable": false,
      "stateMutability": "view",
      "type": "function"
    },
    {
      "constant": true,
      "inputs": [],
      "name": "description",
      "outputs": [
        {
          "internalType": "string",
          "name": "",
          "type": "string"
        }
      ],
      "payable": false,
      "stateMutability": "view",
      "type": "function"
    },
    {
      "constant": true,
      "inputs": [],
      "name": "link",
      "outputs": [
        {
          "internalType": "string",
          "name": "",
          "type": "string"
        }
      ],
      "payable": false,
      "stateMutability": "view",
      "type": "function"
    },
    {
      "constant": true,
      "inputs": [],
      "name": "raiseBy",
      "outputs": [
        {
          "internalType": "uint256",
          "name": "",
          "type": "uint256"
        }
      ],
      "payable": false,
      "stateMutability": "view",
      "type": "function"
    },
    {
      "constant": true,
      "inputs": [],
      "name": "state",
      "outputs": [
        {
          "internalType": "enum Project.State",
          "name": "",
          "type": "uint8"
        }
      ],
      "payable": false,
      "stateMutability": "view",
      "type": "function"
    },
    {
      "constant": true,
      "inputs": [],
      "name": "title",
      "outputs": [
        {
          "internalType": "string",
          "name": "",
          "type": "string"
        }
      ],
      "payable": false,
      "stateMutability": "view",
      "type": "function"
    },
    {
      "constant": false,
      "inputs": [],
      "name": "contribute",
      "outputs": [],
      "payable": true,
      "stateMutability": "payable",
      "type": "function"
    },
    {
      "constant": false,
      "inputs": [],
      "name": "checkIfFundingCompleteOrExpired",
      "outputs": [],
      "payable": false,
      "stateMutability": "nonpayable",
      "type": "function"
    },
    {
      "constant": false,
      "inputs": [],
      "name": "getRefund",
      "outputs": [
        {
          "internalType": "bool",
          "name": "",
          "type": "bool"
        }
      ],
      "payable": false,
      "stateMutability": "nonpayable",
      "type": "function"
    },
    {
      "constant": false,
      "inputs": [],
      "name": "getInfo",
      "outputs": [
        {
          "internalType": "address payable",
          "name": "projectStarter",
          "type": "address"
        },
        {
          "internalType": "string",
          "name": "projectTitle",
          "type": "string"
        },
        {
          "internalType": "string",
          "name": "projectDesc",
          "type": "string"
        },
        {
          "internalType": "string",
          "name": "projLink",
          "type": "string"
        },
        {
          "internalType": "uint256",
          "name": "deadline",
          "type": "uint256"
        },
        {
          "internalType": "enum Project.State",
          "name": "currentState",
          "type": "uint8"
        },
        {
          "internalType": "uint256",
          "name": "currentAmount",
          "type": "uint256"
        },
        {
          "internalType": "uint256",
          "name": "goalAmount",
          "type": "uint256"
        }
      ],
      "payable": false,
      "stateMutability": "nonpayable",
      "type": "function"
    }
  ],
  "bytecode": "0x60806040526000600860006101000a81548160ff021916908360028111156200002457fe5b02179055503480156200003657600080fd5b50604051620015f3380380620015f3833981810160405260c08110156200005c57600080fd5b8101908080519060200190929190805160405193929190846401000000008211156200008757600080fd5b838201915060208201858111156200009e57600080fd5b8251866001820283011164010000000082111715620000bc57600080fd5b8083526020830192505050908051906020019080838360005b83811015620000f2578082015181840152602081019050620000d5565b50505050905090810190601f168015620001205780820380516001836020036101000a031916815260200191505b50604052602001805160405193929190846401000000008211156200014457600080fd5b838201915060208201858111156200015b57600080fd5b82518660018202830111640100000000821117156200017957600080fd5b8083526020830192505050908051906020019080838360005b83811015620001af57808201518184015260208101905062000192565b50505050905090810190601f168015620001dd5780820380516001836020036101000a031916815260200191505b5060405260200180519060200190929190805160405193929190846401000000008211156200020b57600080fd5b838201915060208201858111156200022257600080fd5b82518660018202830111640100000000821117156200024057600080fd5b8083526020830192505050908051906020019080838360005b838110156200027657808201518184015260208101905062000259565b50505050905090810190601f168015620002a45780820380516001836020036101000a031916815260200191505b5060405260200180519060200190929190505050856000806101000a81548173ffffffffffffffffffffffffffffffffffffffff021916908373ffffffffffffffffffffffffffffffffffffffff16021790555084600590805190602001906200031092919062000365565b5083600790805190602001906200032992919062000365565b508060018190555081600690805190602001906200034992919062000365565b5082600481905550600060038190555050505050505062000414565b828054600181600116156101000203166002900490600052602060002090601f016020900481019282601f10620003a857805160ff1916838001178555620003d9565b82800160010185558215620003d9579182015b82811115620003d8578251825591602001919060010190620003bb565b5b509050620003e89190620003ec565b5090565b6200041191905b808211156200040d576000816000905550600101620003f3565b5090565b90565b6111cf80620004246000396000f3fe6080604052600436106100dd5760003560e01c80635a9b0b891161007f578063b2d5ae4411610059578063b2d5ae44146105ab578063c19d93fb146105da578063ce845d1d14610613578063d7bb99ba1461063e576100dd565b80635a9b0b891461033f5780637284e4161461050457806386f3258614610594576100dd565b806337f944cc116100bb57806337f944cc146101f457806342e94c901461021f5780634a79d50c146102845780634c4cea5a14610314576100dd565b806302d05d3f146100e25780630785001c146101395780631c4695f414610164575b600080fd5b3480156100ee57600080fd5b506100f7610648565b604051808273ffffffffffffffffffffffffffffffffffffffff1673ffffffffffffffffffffffffffffffffffffffff16815260200191505060405180910390f35b34801561014557600080fd5b5061014e61066d565b6040518082815260200191505060405180910390f35b34801561017057600080fd5b50610179610673565b6040518080602001828103825283818151815260200191508051906020019080838360005b838110156101b957808201518184015260208101905061019e565b50505050905090810190601f1680156101e65780820380516001836020036101000a031916815260200191505b509250505060405180910390f35b34801561020057600080fd5b50610209610711565b6040518082815260200191505060405180910390f35b34801561022b57600080fd5b5061026e6004803603602081101561024257600080fd5b81019080803573ffffffffffffffffffffffffffffffffffffffff169060200190929190505050610717565b6040518082815260200191505060405180910390f35b34801561029057600080fd5b5061029961072f565b6040518080602001828103825283818151815260200191508051906020019080838360005b838110156102d95780820151818401526020810190506102be565b50505050905090810190601f1680156103065780820380516001836020036101000a031916815260200191505b509250505060405180910390f35b34801561032057600080fd5b506103296107cd565b6040518082815260200191505060405180910390f35b34801561034b57600080fd5b506103546107d3565b604051808973ffffffffffffffffffffffffffffffffffffffff1673ffffffffffffffffffffffffffffffffffffffff1681526020018060200180602001806020018881526020018760028111156103a857fe5b60ff16815260200186815260200185815260200184810384528b818151815260200191508051906020019080838360005b838110156103f45780820151818401526020810190506103d9565b50505050905090810190601f1680156104215780820380516001836020036101000a031916815260200191505b5084810383528a818151815260200191508051906020019080838360005b8381101561045a57808201518184015260208101905061043f565b50505050905090810190601f1680156104875780820380516001836020036101000a031916815260200191505b50848103825289818151815260200191508051906020019080838360005b838110156104c05780820151818401526020810190506104a5565b50505050905090810190601f1680156104ed5780820380516001836020036101000a031916815260200191505b509b50505050505050505050505060405180910390f35b34801561051057600080fd5b50610519610a06565b6040518080602001828103825283818151815260200191508051906020019080838360005b8381101561055957808201518184015260208101905061053e565b50505050905090810190601f1680156105865780820380516001836020036101000a031916815260200191505b509250505060405180910390f35b3480156105a057600080fd5b506105a9610aa4565b005b3480156105b757600080fd5b506105c0610b1a565b604051808215151515815260200191505060405180910390f35b3480156105e657600080fd5b506105ef610cd0565b604051808260028111156105ff57fe5b60ff16815260200191505060405180910390f35b34801561061f57600080fd5b50610628610ce3565b6040518082815260200191505060405180910390f35b610646610ce9565b005b6000809054906101000a900473ffffffffffffffffffffffffffffffffffffffff1681565b60015481565b60068054600181600116156101000203166002900480601f0160208091040260200160405190810160405280929190818152602001828054600181600116156101000203166002900480156107095780601f106106de57610100808354040283529160200191610709565b820191906000526020600020905b8154815290600101906020018083116106ec57829003601f168201915b505050505081565b60045481565b60096020528060005260406000206000915090505481565b60058054600181600116156101000203166002900480601f0160208091040260200160405190810160405280929190818152602001828054600181600116156101000203166002900480156107c55780601f1061079a576101008083540402835291602001916107c5565b820191906000526020600020905b8154815290600101906020018083116107a857829003601f168201915b505050505081565b60025481565b600060608060606000806000806000809054906101000a900473ffffffffffffffffffffffffffffffffffffffff16975060058054600181600116156101000203166002900480601f01602080910402602001604051908101604052809291908181526020018280546001816001161561010002031660029004801561089a5780601f1061086f5761010080835404028352916020019161089a565b820191906000526020600020905b81548152906001019060200180831161087d57829003601f168201915b5050505050965060078054600181600116156101000203166002900480601f0160208091040260200160405190810160405280929190818152602001828054600181600116156101000203166002900480156109375780601f1061090c57610100808354040283529160200191610937565b820191906000526020600020905b81548152906001019060200180831161091a57829003601f168201915b5050505050955060068054600181600116156101000203166002900480601f0160208091040260200160405190810160405280929190818152602001828054600181600116156101000203166002900480156109d45780601f106109a9576101008083540402835291602001916109d4565b820191906000526020600020905b8154815290600101906020018083116109b757829003601f168201915b505050505094506004549350600860009054906101000a900460ff169250600354915060015490509091929394959697565b60078054600181600116156101000203166002900480601f016020809104026020016040519081016040528092919081815260200182805460018160011615610100020316600290048015610a9c5780601f10610a7157610100808354040283529160200191610a9c565b820191906000526020600020905b815481529060010190602001808311610a7f57829003601f168201915b505050505081565b60015460035410610ae1576002600860006101000a81548160ff02191690836002811115610ace57fe5b0217905550610adb610ea6565b50610b11565b600454421115610b10576001600860006101000a81548160ff02191690836002811115610b0a57fe5b02179055505b5b42600281905550565b60006001806002811115610b2a57fe5b600860009054906101000a900460ff166002811115610b4557fe5b14610b4f57600080fd5b6000600960003373ffffffffffffffffffffffffffffffffffffffff1673ffffffffffffffffffffffffffffffffffffffff1681526020019081526020016000205411610b9b57600080fd5b6000600960003373ffffffffffffffffffffffffffffffffffffffff1673ffffffffffffffffffffffffffffffffffffffff1681526020019081526020016000205490506000600960003373ffffffffffffffffffffffffffffffffffffffff1673ffffffffffffffffffffffffffffffffffffffff168152602001908152602001600020819055503373ffffffffffffffffffffffffffffffffffffffff166108fc829081150290604051600060405180830381858888f19350505050610cab5780600960003373ffffffffffffffffffffffffffffffffffffffff1673ffffffffffffffffffffffffffffffffffffffff168152602001908152602001600020819055506000925050610ccc565b610cc08160035461100890919063ffffffff16565b60038190555060019250505b5090565b600860009054906101000a900460ff1681565b60035481565b6000806002811115610cf757fe5b600860009054906101000a900460ff166002811115610d1257fe5b14610d1c57600080fd5b6000809054906101000a900473ffffffffffffffffffffffffffffffffffffffff1673ffffffffffffffffffffffffffffffffffffffff163373ffffffffffffffffffffffffffffffffffffffff161415610d7657600080fd5b610dc834600960003373ffffffffffffffffffffffffffffffffffffffff1673ffffffffffffffffffffffffffffffffffffffff1681526020019081526020016000205461105290919063ffffffff16565b600960003373ffffffffffffffffffffffffffffffffffffffff1673ffffffffffffffffffffffffffffffffffffffff16815260200190815260200160002081905550610e203460035461105290919063ffffffff16565b6003819055507fb01599268f9e5876866cb213fd68ef71bcc2ffbc5981b15fab922cd59f13b1dd3334600354604051808473ffffffffffffffffffffffffffffffffffffffff1673ffffffffffffffffffffffffffffffffffffffff168152602001838152602001828152602001935050505060405180910390a1610ea3610aa4565b50565b60006002806002811115610eb657fe5b600860009054906101000a900460ff166002811115610ed157fe5b14610edb57600080fd5b6000600354905060006003819055506000809054906101000a900473ffffffffffffffffffffffffffffffffffffffff1673ffffffffffffffffffffffffffffffffffffffff166108fc829081150290604051600060405180830381858888f1935050505015610fd3577f2f256415efc8561af8db667cb242964b19be7380f379ccdafaa0e54a6f6b70696000809054906101000a900473ffffffffffffffffffffffffffffffffffffffff16604051808273ffffffffffffffffffffffffffffffffffffffff1673ffffffffffffffffffffffffffffffffffffffff16815260200191505060405180910390a16001925050611004565b806003819055506002600860006101000a81548160ff02191690836002811115610ff957fe5b021790555060009250505b5090565b600061104a83836040518060400160405280601e81526020017f536166654d6174683a207375627472616374696f6e206f766572666c6f7700008152506110da565b905092915050565b6000808284019050838110156110d0576040517f08c379a000000000000000000000000000000000000000000000000000000000815260040180806020018281038252601b8152602001807f536166654d6174683a206164646974696f6e206f766572666c6f77000000000081525060200191505060405180910390fd5b8091505092915050565b6000838311158290611187576040517f08c379a00000000000000000000000000000000000000000000000000000000081526004018080602001828103825283818151815260200191508051906020019080838360005b8381101561114c578082015181840152602081019050611131565b50505050905090810190601f1680156111795780820380516001836020036101000a031916815260200191505b509250505060405180910390fd5b506000838503905080915050939250505056fea265627a7a72315820896ff42be89042e891bcf618a19e0977ffb5cbb1cd0d99c903853a902fbb365764736f6c63430005100032",
  "source": "pragma solidity >=0.4.21 <0.7.0;\r\n\r\nimport \"@openzeppelin/contracts/math/SafeMath.sol\";\r\n\r\ncontract CrowdFunding {\r\n    using SafeMath for uint256;\r\n\r\n    // List of existing projects\r\n    Project[] private projects;\r\n\r\n    // Event that will be emitted whenever a new project is started\r\n    event ProjectStarted(\r\n        address contractAddress,\r\n        address projectStarter,\r\n        string projectTitle,\r\n        string projectDesc,\r\n        string projLink, //\r\n        uint256 deadline,\r\n        uint256 goalAmount\r\n    );\r\n\r\n    /** @dev Function to start a new project.\r\n     * @param title Title of the project to be created\r\n     * @param description Brief description about the project\r\n     * @param durationInDays Project deadline in days\r\n     * @param amountToRaise Project goal in wei\r\n     */\r\n    function startProject(\r\n        string calldata title,\r\n        string calldata description,\r\n        string calldata link,\r\n        uint256 durationInDays,\r\n        uint256 amountToRaise\r\n    ) external {\r\n        uint256 raiseUntil = now.add(durationInDays.mul(1 days));\r\n        Project newProject = new Project(\r\n            msg.sender,\r\n            title,\r\n            description,\r\n            raiseUntil,\r\n            link,\r\n            amountToRaise\r\n        );\r\n        projects.push(newProject);\r\n        emit ProjectStarted(\r\n            address(newProject),\r\n            msg.sender,\r\n            title,\r\n            description,\r\n            link,\r\n            raiseUntil,\r\n            amountToRaise\r\n        );\r\n    }\r\n\r\n    /** @dev Function to get all projects' contract addresses.\r\n     * @return A list of all projects' contract addreses\r\n     */\r\n    function returnAllProjects() external view returns (Project[] memory) {\r\n        return projects;\r\n    }\r\n}\r\n\r\ncontract Project {\r\n    using SafeMath for uint256;\r\n\r\n    // Data structures\r\n    enum State {\r\n        Fundraising,\r\n        Expired,\r\n        Successful\r\n    }\r\n\r\n    // State variables\r\n    address payable public creator;\r\n    uint256 public amountGoal; // required to reach at least this much, else everyone gets refund\r\n    uint256 public completeAt;\r\n    uint256 public currentBalance;\r\n    uint256 public raiseBy;\r\n    string public title;\r\n    string public link;\r\n    string public description;\r\n    State public state = State.Fundraising; // initialize on create\r\n    mapping(address => uint256) public contributions;\r\n\r\n    // Event that will be emitted whenever funding will be received\r\n    event FundReceived(\r\n        address contributor,\r\n        uint256 amount,\r\n        uint256 currentTotal\r\n    );\r\n    // Event that will be emitted whenever the project starter has received the funds\r\n    event CreatorPaid(address recipient);\r\n\r\n    // Modifier to check current state\r\n    modifier inState(State _state) {\r\n        require(state == _state);\r\n        _;\r\n    }\r\n\r\n    // Modifier to check if the function caller is the project creator\r\n    modifier isCreator() {\r\n        require(msg.sender == creator);\r\n        _;\r\n    }\r\n\r\n    constructor(\r\n        address payable projectStarter,\r\n        string memory projectTitle,\r\n        string memory projectDesc,\r\n        uint256 fundRaisingDeadline,\r\n        string memory projLink,\r\n        uint256 goalAmount\r\n    ) public {\r\n        creator = projectStarter;\r\n        title = projectTitle;\r\n        description = projectDesc;\r\n        amountGoal = goalAmount;\r\n        link = projLink;\r\n        raiseBy = fundRaisingDeadline;\r\n        currentBalance = 0;\r\n    }\r\n\r\n    /** @dev Function to fund a certain project.\r\n     */\r\n    function contribute() external payable inState(State.Fundraising) {\r\n        require(msg.sender != creator);\r\n        contributions[msg.sender] = contributions[msg.sender].add(msg.value);\r\n        currentBalance = currentBalance.add(msg.value);\r\n        emit FundReceived(msg.sender, msg.value, currentBalance);\r\n        checkIfFundingCompleteOrExpired();\r\n    }\r\n\r\n    /** @dev Function to change the project state depending on conditions.\r\n     */\r\n    function checkIfFundingCompleteOrExpired() public {\r\n        if (currentBalance >= amountGoal) {\r\n            state = State.Successful;\r\n            payOut();\r\n        } else if (now > raiseBy) {\r\n            state = State.Expired;\r\n        }\r\n        completeAt = now;\r\n    }\r\n\r\n    /** @dev Function to give the received funds to project starter.\r\n     */\r\n    function payOut() internal inState(State.Successful) returns (bool) {\r\n        uint256 totalRaised = currentBalance;\r\n        currentBalance = 0;\r\n\r\n        if (creator.send(totalRaised)) {\r\n            emit CreatorPaid(creator);\r\n            return true;\r\n        } else {\r\n            currentBalance = totalRaised;\r\n            state = State.Successful;\r\n        }\r\n\r\n        return false;\r\n    }\r\n\r\n    /** @dev Function to retrieve donated amount when a project expires.\r\n     */\r\n    function getRefund() public inState(State.Expired) returns (bool) \r\n    {\r\n        require(contributions[msg.sender] > 0);\r\n\r\n        uint256 amountToRefund = contributions[msg.sender];\r\n        contributions[msg.sender] = 0;\r\n\r\n        if (!msg.sender.send(amountToRefund)) {\r\n            contributions[msg.sender] = amountToRefund;\r\n            return false;\r\n        } else {\r\n            currentBalance = currentBalance.sub(amountToRefund);\r\n        }\r\n\r\n        return true;\r\n    }\r\n\r\n    /** @dev Function to get specific information about the project.\r\n     * @return Returns all the project's details\r\n     */\r\n    function getInfo()\r\n        public\r\n        returns (\r\n            address payable projectStarter,\r\n            string memory projectTitle,\r\n            string memory projectDesc,\r\n            string memory projLink,\r\n            uint256 deadline,\r\n            State currentState,\r\n            uint256 currentAmount,\r\n            uint256 goalAmount\r\n        )\r\n    {\r\n        projectStarter = creator;\r\n        projectTitle = title;\r\n        projectDesc = description;\r\n        projLink = link;\r\n        deadline = raiseBy;\r\n        currentState = state;\r\n        currentAmount = currentBalance;\r\n        goalAmount = amountGoal;\r\n    }\r\n}",
  "sourcePath": "V:\\Rohan\\Blockchain-Crowdfunding-App\\contracts\\CrowdFunding.sol",
  "compiler": {
    "name": "solc",
    "version": "0.5.16+commit.9c3226ce.Emscripten.clang"
  },
  "schemaVersion": "3.4.11",
  "updatedAt": "2022-12-26T08:08:45.518Z",
  "devdoc": {
    "methods": {
      "checkIfFundingCompleteOrExpired()": {
        "details": "Function to change the project state depending on conditions."
      },
      "contribute()": {
        "details": "Function to fund a certain project."
      },
      "getInfo()": {
        "details": "Function to get specific information about the project.",
        "return": "Returns all the project's details"
      },
      "getRefund()": {
        "details": "Function to retrieve donated amount when a project expires."
      }
    }
  },
  "userdoc": {
    "methods": {}
  }
}